:020000040800F2
:100000000008002089010008E5010008E50100085A
:10001000E5010008E5010008E50100080000000016
:10002000000000000000000000000000E5010008E2
:10003000E501000800000000E5010008E5010008F6
:10004000E5010008E5010008E5010008E5010008F8
:10005000E5010008E5010008E5010008E5010008E8
:10006000E5010008E5010008E5010008E5010008D8
:10007000E5010008E5010008E5010008E5010008C8
:10008000E5010008E5010008E5010008E5010008B8
:10009000E5010008E5010008E5010008E5010008A8
:1000A000E5010008E5010008E5010008E501000898
:1000B000E5010008E5010008E5010008E501000888
:1000C000E5010008E5010008E5010008E501000878
:1000D000E5010008E5010008E5010008E501000868
:1000E000E5010008E5010008E5010008E501000858
:1000F000E5010008E5010008E5010008E501000848
:10010000E5010008E5010008E5010008E501000837
:10011000E5010008E5010008E5010008E501000827
:10012000E5010008E5010008E5010008E501000817
:10013000E5010008E5010008E5010008E501000807
:10014000E5010008E5010008E5010008E5010008F7
:10015000E5010008E5010008E5010008E5010008E7
:10016000E5010008E5010008E5010008E5010008D7
:10017000E5010008E5010008E5010008E5010008C7
:10018000E5010008E501000880B582B000AF104B22
:100190007B60104B3B6007E03B681A1D3A607A6851
:1001A000111D796012681A603A680B4B9A42F3D3BA
:1001B0000A480B494FF000028842B8BF40F8042BB0
:1001C000FFF6FAAF00F0F4F80837BD4680BD00BF77
:1001D000340B000800000020000000200000002078
:1001E0000000002080B400AFFEE700BF80B483B001
:1001F00000AF78600B46FB70FB78002B06D0094BF4
:10020000084A51697A680A435A6106E0054B054A73
:1002100051697A68D2430A405A610C37BD465DF88D
:10022000047B70470010024080B483B000AF786058
:100230000B46FB70FB78002B06D0094B084AD169AE
:100240007A680A43DA6106E0054B054AD1697A68A3
:10025000D2430A40DA610C37BD465DF8047B704733
:100260000010024080B483B000AF786000BF7B68AC
:100270005A1E7A60002BFAD10C37BD465DF8047B1C
:10028000704700BF80B500AF4FF400100121FFF7A9
:10029000ADFF4FF480200121FFF7A8FF04200121CA
:1002A000FFF7C2FF80BD00BF80B584B000AF01235F
:1002B0003B714FF47F433B6003237B710023FB7151
:1002C0000023BB713B461648194600F0A1F80223F3
:1002D0003B734FF47073BB600023FB730023BB734D
:1002E00003237B730F480621022200F025F90D48F5
:1002F0000721022200F020F90A480821022200F01A
:100300001BF908480921022200F016F907F1080339
:100310000448194600F07CF81037BD4680BD00BF88
:10032000001000480004004880B588B000AF632387
:10033000BB820023BB830023FB82FF23BB6107F149
:1003400014031A48194600F03DF960233B6000236E
:10035000BB810123BB803B461448194600F0C8F915
:100360003B461248194600F04FFA3B460F481946E3
:1003700000F0CAFA3B460D48194600F043FB0B4813
:10038000012100F095F90948002100F09BFB074886
:10039000002100F0A5FB0548002100F0AFFB034859
:1003A000002100F0B9FB2037BD4680BD00080040A9
:1003B00080B582B000AF00237B60FFF763FFFFF7DB
:1003C00073FFFFF7B1FF0F4B4FF47F429A82002378
:1003D0007B6012E00C48002100F074FB7A68134641
:1003E0009B0013445B000848194600F079FB07485E
:1003F000FFF738FF7B6801337B607B680E2BE9DDFC
:10040000E1E700BF00100048000800408096980017
:1004100080B487B000AF7860396000237B6100232F
:100420003B610023FB6000237B617CE07B69012250
:1004300002FA03F33B613B681A683B691340FB60B7
:10044000FA683B699A426BD13B681B79012B03D058
:100450003B681B79022B34D17B689A687B695B000F
:10046000032101FA03F3DB431A407B689A607B683F
:100470009A683B685B7919467B695B0001FA03F374
:100480001A437B689A607B689B889AB27B699BB2AF
:10049000012101FA03F39BB2DB439BB213409AB2F2
:1004A0007B689A807B689B889AB23B689B791946E7
:1004B0007B699BB201FA03F39BB213439AB27B6848
:1004C0009A807B681A687B695B00032101FA03F359
:1004D000DB431A407B681A607B681A683B681B79AB
:1004E00019467B695B0001FA03F31A437B681A60C3
:1004F0007B68DA687B699BB25B00032101FA03F336
:10050000DB431A407B68DA607B68DA683B68DB793A
:1005100019467B695B0001FA03F31A437B68DA60D2
:100520007B6901337B617B690F2B7FF67FAF1C37C3
:10053000BD465DF8047B704780B485B000AF78603D
:1005400013460A467A807B700023FB600023BB6061
:100550007A787B8803F007039B0002FA03F3FB60C1
:100560007B88DB089BB21A467B88DB089BB2194666
:100570007B68083153F821107B8803F007039B0048
:100580000F2000FA03F3DB4319407B68083243F87D
:1005900022107B88DB089BB21A467B68083253F82E
:1005A0002220FB681343BB607B88DB089BB21A46A2
:1005B0007B680832B96843F822101437BD465DF8ED
:1005C000047B704780B485B000AF78603960002349
:1005D000FB817B681B88FB817A682C4B9A420FD089
:1005E0007A682B4B9A420BD07B68B3F1804F07D0CF
:1005F0007A68284B9A4203D07A68274B9A4208D1EE
:10060000FB8923F07003FB813B685A88FB89134305
:10061000FB817A68214B9A420CD07A68204B9A422F
:1006200008D0FB8923F44073FB813B681A89FB895E
:100630001343FB817B68FA891A803B685A687B68A0
:10064000DA623B681A887B681A857A680F4B9A428F
:100650000FD07A680E4B9A420BD07A68114B9A42AF
:1006600007D07A68104B9A4203D07A680F4B9A42AF
:1006700004D13B689B7A1A467B681A867B68012204
:100680005A611437BD465DF8047B7047002C014069
:100690000034014000040040000800400010004009
:1006A0000014004000400140004401400048014067
:1006B00080B483B000AF78600B46FB70FB78002BF2
:1006C00008D07B681B889BB243F001039AB27B6819
:1006D0001A8007E07B681B889BB223F001039AB263
:1006E0007B681A800C37BD465DF8047B704700BFFD
:1006F00080B487B000AF786039600023FB600023CE
:100700007B6100233B617B681B6A23F001027B68ED
:100710001A627B681B6A7B617B685B683B617B68F4
:100720009B69FB60FB6823F4803323F07003FB605C
:10073000FB6823F00303FB603B681B68FA68134304
:10074000FB607B6923F002037B613B689B897A69CC
:1007500013437B613B689B887A6913437B617A68AA
:10076000244B9A420FD07A68234B9A420BD07A6876
:10077000224B9A4207D07A68214B9A4203D07A687A
:10078000204B9A4223D17B6923F008037B613B68AD
:10079000DB897A6913437B617B6923F004037B6106
:1007A0003B68DB887A6913437B613B6923F4807380
:1007B0003B613B6923F400733B613B681B8A3A69E8
:1007C00013433B613B685B8A3A6913433B617B6837
:1007D0003A695A607B68FA689A613B689A687B68F4
:1007E0005A637B687A691A621C37BD465DF8047BE0
:1007F000704700BF002C0140003401400040014020
:10080000004401400048014080B487B000AF7860E8
:1008100039600023FB6000237B6100233B617B6820
:100820001B6A23F010027B681A627B681B6A7B617B
:100830007B685B683B617B689B69FB60FB6823F0BE
:10084000807323F4E043FB60FB6823F44073FB6098
:100850003B681B681B02FA681343FB607B6923F04B
:1008600020037B613B689B891B017A6913437B6191
:100870003B689B881B017A6913437B617A68204B34
:100880009A4203D07A681F4B9A4227D17B6923F0A2
:1008900080037B613B68DB891B017A6913437B61C1
:1008A0007B6923F040037B613B68DB881B017A692D
:1008B00013437B613B6923F480633B613B6923F411
:1008C00000633B613B681B8A9B003A6913433B61B1
:1008D0003B685B8A9B003A6913433B617B683A69DA
:1008E0005A607B68FA689A613B689A687B689A6389
:1008F0007B687A691A621C37BD465DF8047B7047D5
:10090000002C01400034014080B487B000AF786013
:1009100039600023FB6000237B6100233B617B681F
:100920001B6A23F480727B681A627B681B6A7B6196
:100930007B685B683B617B68DB69FB60FB6823F07D
:100940007003FB60FB6823F00303FB603B681B68DC
:10095000FA681343FB607B6923F400737B613B6897
:100960009B891B027A6913437B613B689B881B024E
:100970007A6913437B617A68204B9A4203D07A6884
:100980001F4B9A4227D17B6923F400637B613B684C
:10099000DB891B027A6913437B617B6923F48063E3
:1009A0007B613B68DB881B027A6913437B613B698F
:1009B00023F480533B613B6923F400533B613B6864
:1009C0001B8A1B013A6913433B613B685B8A1B012D
:1009D0003A6913433B617B683A695A607B68FA68FD
:1009E000DA613B689A687B68DA637B687A691A62C5
:1009F0001C37BD465DF8047B704700BF002C0140EA
:100A00000034014080B487B000AF786039600023C3
:100A10003B610023FB6000237B617B681B6A23F43E
:100A200080527B681A627B681B6AFB607B685B682C
:100A30007B617B68DB693B613B6923F4E0433B619D
:100A40003B6923F440733B613B681B681B023A69B6
:100A500013433B61FB6823F40053FB603B689B89B5
:100A60001B03FA681343FB603B689B881B03FA680F
:100A70001343FB607A68114B9A4203D07A68104B9B
:100A80009A4209D17B6923F480437B613B681B8ACE
:100A90009B017A6913437B617B687A695A607B6842
:100AA0003A69DA613B689A687B681A647B68FA681D
:100AB0001A621C37BD465DF8047B7047002C01406C
:100AC0000034014080B483B000AF786039607B6847
:100AD0003A685A630C37BD465DF8047B704700BF27
:100AE00080B483B000AF786039607B683A689A63FD
:100AF0000C37BD465DF8047B704700BF80B483B0FF
:100B000000AF786039607B683A68DA630C37BD46BD
:100B10005DF8047B704700BF80B483B000AF78609D
:100B200039607B683A681A640C37BD465DF8047B0F
:040B3000704700BF4B
:0400000508000000EF
:00000001FF
